{
  "_format": "hh-sol-artifact-1",
  "contractName": "Forge",
  "sourceName": "contracts/Forge.sol",
  "abi": [
    {
      "inputs": [
        {
          "internalType": "address",
          "name": "nftAddr",
          "type": "address"
        }
      ],
      "stateMutability": "nonpayable",
      "type": "constructor"
    },
    {
      "inputs": [
        {
          "internalType": "uint256",
          "name": "id",
          "type": "uint256"
        },
        {
          "internalType": "uint256",
          "name": "amount",
          "type": "uint256"
        }
      ],
      "name": "burn",
      "outputs": [],
      "stateMutability": "nonpayable",
      "type": "function"
    },
    {
      "inputs": [
        {
          "internalType": "bool[]",
          "name": "ids",
          "type": "bool[]"
        }
      ],
      "name": "forge",
      "outputs": [],
      "stateMutability": "nonpayable",
      "type": "function"
    },
    {
      "inputs": [
        {
          "internalType": "address",
          "name": "user",
          "type": "address"
        }
      ],
      "name": "getMintCooldownTime",
      "outputs": [
        {
          "internalType": "uint256",
          "name": "",
          "type": "uint256"
        }
      ],
      "stateMutability": "view",
      "type": "function"
    },
    {
      "inputs": [
        {
          "internalType": "uint256",
          "name": "id",
          "type": "uint256"
        }
      ],
      "name": "mint",
      "outputs": [],
      "stateMutability": "nonpayable",
      "type": "function"
    },
    {
      "inputs": [
        {
          "internalType": "uint256",
          "name": "fromId",
          "type": "uint256"
        },
        {
          "internalType": "uint256",
          "name": "toId",
          "type": "uint256"
        },
        {
          "internalType": "uint256",
          "name": "amount",
          "type": "uint256"
        }
      ],
      "name": "trade",
      "outputs": [],
      "stateMutability": "nonpayable",
      "type": "function"
    }
  ],
  "bytecode": "0x60a06040523480156200001157600080fd5b5060405162001a4538038062001a458339818101604052810190620000379190620000dc565b8073ffffffffffffffffffffffffffffffffffffffff1660808173ffffffffffffffffffffffffffffffffffffffff1681525050506200010e565b600080fd5b600073ffffffffffffffffffffffffffffffffffffffff82169050919050565b6000620000a48262000077565b9050919050565b620000b68162000097565b8114620000c257600080fd5b50565b600081519050620000d681620000ab565b92915050565b600060208284031215620000f557620000f462000072565b5b60006200010584828501620000c5565b91505092915050565b6080516118ce62000177600039600081816101ab01528181610296015281816103710152818161044801528181610523015281816105fa015281816106d5015281816107ac01528181610bb001528181610c3f01528181610d230152610db701526118ce6000f3fe608060405234801561001057600080fd5b50600436106100575760003560e01c80634a26a72d1461005c5780634b9da94f146100785780634ee8d115146100a8578063a0712d68146100c4578063b390c0ab146100e0575b600080fd5b61007660048036038101906100719190610fee565b6100fc565b005b610092600480360381019061008d9190611095565b610842565b60405161009f91906110db565b60405180910390f35b6100c260048036038101906100bd9190611122565b61088a565b005b6100de60048036038101906100d99190611175565b610921565b005b6100fa60048036038101906100f591906111a2565b610a39565b005b6003815114610140576040517f08c379a00000000000000000000000000000000000000000000000000000000081526004016101379061123f565b60405180910390fd5b806000815181106101545761015361125f565b5b602002602001015180156101805750806001815181106101775761017661125f565b5b60200260200101515b80156101a457508060028151811061019b5761019a61125f565b5b60200260200101515b1561032a577f000000000000000000000000000000000000000000000000000000000000000073ffffffffffffffffffffffffffffffffffffffff16636b20c454336102156040518060600160405280600060ff168152602001600160ff168152602001600260ff16815250610a48565b6102446040518060600160405280600160ff168152602001600160ff168152602001600160ff16815250610a48565b6040518463ffffffff1660e01b81526004016102629392919061135b565b600060405180830381600087803b15801561027c57600080fd5b505af1158015610290573d6000803e3d6000fd5b505050507f000000000000000000000000000000000000000000000000000000000000000073ffffffffffffffffffffffffffffffffffffffff1663156e29f633600660016040518463ffffffff1660e01b81526004016102f393929190611420565b600060405180830381600087803b15801561030d57600080fd5b505af1158015610321573d6000803e3d6000fd5b5050505061083f565b8060008151811061033e5761033d61125f565b5b6020026020010151801561036a5750806001815181106103615761036061125f565b5b60200260200101515b156104dc577f000000000000000000000000000000000000000000000000000000000000000073ffffffffffffffffffffffffffffffffffffffff16636b20c454336103d16040518060400160405280600060ff168152602001600160ff16815250610afb565b6103f66040518060400160405280600160ff168152602001600160ff16815250610afb565b6040518463ffffffff1660e01b81526004016104149392919061135b565b600060405180830381600087803b15801561042e57600080fd5b505af1158015610442573d6000803e3d6000fd5b505050507f000000000000000000000000000000000000000000000000000000000000000073ffffffffffffffffffffffffffffffffffffffff1663156e29f633600360016040518463ffffffff1660e01b81526004016104a593929190611492565b600060405180830381600087803b1580156104bf57600080fd5b505af11580156104d3573d6000803e3d6000fd5b5050505061083e565b806001815181106104f0576104ef61125f565b5b6020026020010151801561051c5750806002815181106105135761051261125f565b5b60200260200101515b1561068e577f000000000000000000000000000000000000000000000000000000000000000073ffffffffffffffffffffffffffffffffffffffff16636b20c454336105836040518060400160405280600160ff168152602001600260ff16815250610afb565b6105a86040518060400160405280600160ff168152602001600160ff16815250610afb565b6040518463ffffffff1660e01b81526004016105c69392919061135b565b600060405180830381600087803b1580156105e057600080fd5b505af11580156105f4573d6000803e3d6000fd5b505050507f000000000000000000000000000000000000000000000000000000000000000073ffffffffffffffffffffffffffffffffffffffff1663156e29f633600460016040518463ffffffff1660e01b815260040161065793929190611504565b600060405180830381600087803b15801561067157600080fd5b505af1158015610685573d6000803e3d6000fd5b5050505061083d565b806000815181106106a2576106a161125f565b5b602002602001015180156106ce5750806002815181106106c5576106c461125f565b5b60200260200101515b1561083c577f000000000000000000000000000000000000000000000000000000000000000073ffffffffffffffffffffffffffffffffffffffff16636b20c454336107356040518060400160405280600060ff168152602001600260ff16815250610afb565b61075a6040518060400160405280600160ff168152602001600160ff16815250610afb565b6040518463ffffffff1660e01b81526004016107789392919061135b565b600060405180830381600087803b15801561079257600080fd5b505af11580156107a6573d6000803e3d6000fd5b505050507f000000000000000000000000000000000000000000000000000000000000000073ffffffffffffffffffffffffffffffffffffffff1663156e29f633600560016040518463ffffffff1660e01b815260040161080993929190611576565b600060405180830381600087803b15801561082357600080fd5b505af1158015610837573d6000803e3d6000fd5b505050505b5b5b5b50565b60008060008373ffffffffffffffffffffffffffffffffffffffff1673ffffffffffffffffffffffffffffffffffffffff168152602001908152602001600020549050919050565b60028211156108ce576040517f08c379a00000000000000000000000000000000000000000000000000000000081526004016108c5906115f9565b60405180910390fd5b818303610910576040517f08c379a000000000000000000000000000000000000000000000000000000000815260040161090790611665565b60405180910390fd5b61091c33848484610bae565b505050565b6002811115610965576040517f08c379a000000000000000000000000000000000000000000000000000000000815260040161095c906116d1565b60405180910390fd5b60008060003373ffffffffffffffffffffffffffffffffffffffff1673ffffffffffffffffffffffffffffffffffffffff1681526020019081526020016000205414610a2c576000803373ffffffffffffffffffffffffffffffffffffffff1673ffffffffffffffffffffffffffffffffffffffff168152602001908152602001600020544211610a2b576040517f08c379a0000000000000000000000000000000000000000000000000000000008152600401610a229061173d565b60405180910390fd5b5b610a363382610cd2565b50565b610a44338383610db5565b5050565b60606000600367ffffffffffffffff811115610a6757610a66610e73565b5b604051908082528060200260200182016040528015610a955781602001602082028036833780820191505090505b50905060005b6003811015610af157838160038110610ab757610ab661125f565b5b602002015160ff16828281518110610ad257610ad161125f565b5b6020026020010181815250508080610ae99061178c565b915050610a9b565b5080915050919050565b60606000600267ffffffffffffffff811115610b1a57610b19610e73565b5b604051908082528060200260200182016040528015610b485781602001602082028036833780820191505090505b50905060005b6002811015610ba457838160028110610b6a57610b6961125f565b5b602002015160ff16828281518110610b8557610b8461125f565b5b6020026020010181815250508080610b9c9061178c565b915050610b4e565b5080915050919050565b7f000000000000000000000000000000000000000000000000000000000000000073ffffffffffffffffffffffffffffffffffffffff1663f5298aca8585846040518463ffffffff1660e01b8152600401610c0b939291906117d4565b600060405180830381600087803b158015610c2557600080fd5b505af1158015610c39573d6000803e3d6000fd5b505050507f000000000000000000000000000000000000000000000000000000000000000073ffffffffffffffffffffffffffffffffffffffff1663156e29f68584846040518463ffffffff1660e01b8152600401610c9a939291906117d4565b600060405180830381600087803b158015610cb457600080fd5b505af1158015610cc8573d6000803e3d6000fd5b5050505050505050565b603c42610cdf919061180b565b6000808473ffffffffffffffffffffffffffffffffffffffff1673ffffffffffffffffffffffffffffffffffffffff168152602001908152602001600020819055507f000000000000000000000000000000000000000000000000000000000000000073ffffffffffffffffffffffffffffffffffffffff1663156e29f6838360016040518463ffffffff1660e01b8152600401610d7f93929190611861565b600060405180830381600087803b158015610d9957600080fd5b505af1158015610dad573d6000803e3d6000fd5b505050505050565b7f000000000000000000000000000000000000000000000000000000000000000073ffffffffffffffffffffffffffffffffffffffff1663f5298aca8484846040518463ffffffff1660e01b8152600401610e12939291906117d4565b600060405180830381600087803b158015610e2c57600080fd5b505af1158015610e40573d6000803e3d6000fd5b50505050505050565b6000604051905090565b600080fd5b600080fd5b600080fd5b6000601f19601f8301169050919050565b7f4e487b7100000000000000000000000000000000000000000000000000000000600052604160045260246000fd5b610eab82610e62565b810181811067ffffffffffffffff82111715610eca57610ec9610e73565b5b80604052505050565b6000610edd610e49565b9050610ee98282610ea2565b919050565b600067ffffffffffffffff821115610f0957610f08610e73565b5b602082029050602081019050919050565b600080fd5b60008115159050919050565b610f3481610f1f565b8114610f3f57600080fd5b50565b600081359050610f5181610f2b565b92915050565b6000610f6a610f6584610eee565b610ed3565b90508083825260208201905060208402830185811115610f8d57610f8c610f1a565b5b835b81811015610fb65780610fa28882610f42565b845260208401935050602081019050610f8f565b5050509392505050565b600082601f830112610fd557610fd4610e5d565b5b8135610fe5848260208601610f57565b91505092915050565b60006020828403121561100457611003610e53565b5b600082013567ffffffffffffffff81111561102257611021610e58565b5b61102e84828501610fc0565b91505092915050565b600073ffffffffffffffffffffffffffffffffffffffff82169050919050565b600061106282611037565b9050919050565b61107281611057565b811461107d57600080fd5b50565b60008135905061108f81611069565b92915050565b6000602082840312156110ab576110aa610e53565b5b60006110b984828501611080565b91505092915050565b6000819050919050565b6110d5816110c2565b82525050565b60006020820190506110f060008301846110cc565b92915050565b6110ff816110c2565b811461110a57600080fd5b50565b60008135905061111c816110f6565b92915050565b60008060006060848603121561113b5761113a610e53565b5b60006111498682870161110d565b935050602061115a8682870161110d565b925050604061116b8682870161110d565b9150509250925092565b60006020828403121561118b5761118a610e53565b5b60006111998482850161110d565b91505092915050565b600080604083850312156111b9576111b8610e53565b5b60006111c78582860161110d565b92505060206111d88582860161110d565b9150509250929050565b600082825260208201905092915050565b7f496e76616c696420696473206c656e6774680000000000000000000000000000600082015250565b60006112296012836111e2565b9150611234826111f3565b602082019050919050565b600060208201905081810360008301526112588161121c565b9050919050565b7f4e487b7100000000000000000000000000000000000000000000000000000000600052603260045260246000fd5b61129781611057565b82525050565b600081519050919050565b600082825260208201905092915050565b6000819050602082019050919050565b6112d2816110c2565b82525050565b60006112e483836112c9565b60208301905092915050565b6000602082019050919050565b60006113088261129d565b61131281856112a8565b935061131d836112b9565b8060005b8381101561134e57815161133588826112d8565b9750611340836112f0565b925050600181019050611321565b5085935050505092915050565b6000606082019050611370600083018661128e565b818103602083015261138281856112fd565b9050818103604083015261139681846112fd565b9050949350505050565b6000819050919050565b6000819050919050565b60006113cf6113ca6113c5846113a0565b6113aa565b6110c2565b9050919050565b6113df816113b4565b82525050565b6000819050919050565b600061140a611405611400846113e5565b6113aa565b6110c2565b9050919050565b61141a816113ef565b82525050565b6000606082019050611435600083018661128e565b61144260208301856113d6565b61144f6040830184611411565b949350505050565b6000819050919050565b600061147c61147761147284611457565b6113aa565b6110c2565b9050919050565b61148c81611461565b82525050565b60006060820190506114a7600083018661128e565b6114b46020830185611483565b6114c16040830184611411565b949350505050565b6000819050919050565b60006114ee6114e96114e4846114c9565b6113aa565b6110c2565b9050919050565b6114fe816114d3565b82525050565b6000606082019050611519600083018661128e565b61152660208301856114f5565b6115336040830184611411565b949350505050565b6000819050919050565b600061156061155b6115568461153b565b6113aa565b6110c2565b9050919050565b61157081611545565b82525050565b600060608201905061158b600083018661128e565b6115986020830185611567565b6115a56040830184611411565b949350505050565b7f696e76616c696420746f6b656e49640000000000000000000000000000000000600082015250565b60006115e3600f836111e2565b91506115ee826115ad565b602082019050919050565b60006020820190508181036000830152611612816115d6565b9050919050565b7f746f6b656e4964732063616e6e6f742062652073616d65000000000000000000600082015250565b600061164f6017836111e2565b915061165a82611619565b602082019050919050565b6000602082019050818103600083015261167e81611642565b9050919050565b7f6964206e6f7420696e2072616e6765205b302d325d0000000000000000000000600082015250565b60006116bb6015836111e2565b91506116c682611685565b602082019050919050565b600060208201905081810360008301526116ea816116ae565b9050919050565b7f6d696e74206c696d697420657863656564656400000000000000000000000000600082015250565b60006117276013836111e2565b9150611732826116f1565b602082019050919050565b600060208201905081810360008301526117568161171a565b9050919050565b7f4e487b7100000000000000000000000000000000000000000000000000000000600052601160045260246000fd5b6000611797826110c2565b91507fffffffffffffffffffffffffffffffffffffffffffffffffffffffffffffffff82036117c9576117c861175d565b5b600182019050919050565b60006060820190506117e9600083018661128e565b6117f660208301856110cc565b61180360408301846110cc565b949350505050565b6000611816826110c2565b9150611821836110c2565b9250827fffffffffffffffffffffffffffffffffffffffffffffffffffffffffffffffff038211156118565761185561175d565b5b828201905092915050565b6000606082019050611876600083018661128e565b61188360208301856110cc565b6118906040830184611411565b94935050505056fea2646970667358221220382659342caf321d7d5832d17556a56ea5cc2fce29da623809c914a1ced6628364736f6c634300080d0033",
  "linkReferences": {},
  "deployedLinkReferences": {}
}