{
  "_format": "hh-sol-artifact-1",
  "contractName": "GenBukowski",
  "sourceName": "contracts/GenBukowski.sol",
  "abi": [
    {
      "inputs": [],
      "stateMutability": "nonpayable",
      "type": "constructor"
    },
    {
      "anonymous": false,
      "inputs": [
        {
          "indexed": true,
          "internalType": "address",
          "name": "account",
          "type": "address"
        },
        {
          "indexed": true,
          "internalType": "address",
          "name": "operator",
          "type": "address"
        },
        {
          "indexed": false,
          "internalType": "bool",
          "name": "approved",
          "type": "bool"
        }
      ],
      "name": "ApprovalForAll",
      "type": "event"
    },
    {
      "anonymous": false,
      "inputs": [
        {
          "indexed": true,
          "internalType": "bytes32",
          "name": "role",
          "type": "bytes32"
        },
        {
          "indexed": true,
          "internalType": "bytes32",
          "name": "previousAdminRole",
          "type": "bytes32"
        },
        {
          "indexed": true,
          "internalType": "bytes32",
          "name": "newAdminRole",
          "type": "bytes32"
        }
      ],
      "name": "RoleAdminChanged",
      "type": "event"
    },
    {
      "anonymous": false,
      "inputs": [
        {
          "indexed": true,
          "internalType": "bytes32",
          "name": "role",
          "type": "bytes32"
        },
        {
          "indexed": true,
          "internalType": "address",
          "name": "account",
          "type": "address"
        },
        {
          "indexed": true,
          "internalType": "address",
          "name": "sender",
          "type": "address"
        }
      ],
      "name": "RoleGranted",
      "type": "event"
    },
    {
      "anonymous": false,
      "inputs": [
        {
          "indexed": true,
          "internalType": "bytes32",
          "name": "role",
          "type": "bytes32"
        },
        {
          "indexed": true,
          "internalType": "address",
          "name": "account",
          "type": "address"
        },
        {
          "indexed": true,
          "internalType": "address",
          "name": "sender",
          "type": "address"
        }
      ],
      "name": "RoleRevoked",
      "type": "event"
    },
    {
      "anonymous": false,
      "inputs": [
        {
          "indexed": true,
          "internalType": "address",
          "name": "operator",
          "type": "address"
        },
        {
          "indexed": true,
          "internalType": "address",
          "name": "from",
          "type": "address"
        },
        {
          "indexed": true,
          "internalType": "address",
          "name": "to",
          "type": "address"
        },
        {
          "indexed": false,
          "internalType": "uint256[]",
          "name": "ids",
          "type": "uint256[]"
        },
        {
          "indexed": false,
          "internalType": "uint256[]",
          "name": "values",
          "type": "uint256[]"
        }
      ],
      "name": "TransferBatch",
      "type": "event"
    },
    {
      "anonymous": false,
      "inputs": [
        {
          "indexed": true,
          "internalType": "address",
          "name": "operator",
          "type": "address"
        },
        {
          "indexed": true,
          "internalType": "address",
          "name": "from",
          "type": "address"
        },
        {
          "indexed": true,
          "internalType": "address",
          "name": "to",
          "type": "address"
        },
        {
          "indexed": false,
          "internalType": "uint256",
          "name": "id",
          "type": "uint256"
        },
        {
          "indexed": false,
          "internalType": "uint256",
          "name": "value",
          "type": "uint256"
        }
      ],
      "name": "TransferSingle",
      "type": "event"
    },
    {
      "anonymous": false,
      "inputs": [
        {
          "indexed": false,
          "internalType": "string",
          "name": "value",
          "type": "string"
        },
        {
          "indexed": true,
          "internalType": "uint256",
          "name": "id",
          "type": "uint256"
        }
      ],
      "name": "URI",
      "type": "event"
    },
    {
      "inputs": [],
      "name": "DEFAULT_ADMIN_ROLE",
      "outputs": [
        {
          "internalType": "bytes32",
          "name": "",
          "type": "bytes32"
        }
      ],
      "stateMutability": "view",
      "type": "function"
    },
    {
      "inputs": [],
      "name": "MINTER_ROLE",
      "outputs": [
        {
          "internalType": "bytes32",
          "name": "",
          "type": "bytes32"
        }
      ],
      "stateMutability": "view",
      "type": "function"
    },
    {
      "inputs": [
        {
          "internalType": "address",
          "name": "to",
          "type": "address"
        }
      ],
      "name": "assignMinter",
      "outputs": [],
      "stateMutability": "nonpayable",
      "type": "function"
    },
    {
      "inputs": [
        {
          "internalType": "address",
          "name": "account",
          "type": "address"
        },
        {
          "internalType": "uint256",
          "name": "id",
          "type": "uint256"
        }
      ],
      "name": "balanceOf",
      "outputs": [
        {
          "internalType": "uint256",
          "name": "",
          "type": "uint256"
        }
      ],
      "stateMutability": "view",
      "type": "function"
    },
    {
      "inputs": [
        {
          "internalType": "address[]",
          "name": "accounts",
          "type": "address[]"
        },
        {
          "internalType": "uint256[]",
          "name": "ids",
          "type": "uint256[]"
        }
      ],
      "name": "balanceOfBatch",
      "outputs": [
        {
          "internalType": "uint256[]",
          "name": "",
          "type": "uint256[]"
        }
      ],
      "stateMutability": "view",
      "type": "function"
    },
    {
      "inputs": [
        {
          "internalType": "address",
          "name": "from",
          "type": "address"
        },
        {
          "internalType": "uint256",
          "name": "id",
          "type": "uint256"
        },
        {
          "internalType": "uint256",
          "name": "amount",
          "type": "uint256"
        }
      ],
      "name": "burn",
      "outputs": [],
      "stateMutability": "nonpayable",
      "type": "function"
    },
    {
      "inputs": [
        {
          "internalType": "address",
          "name": "from",
          "type": "address"
        },
        {
          "internalType": "uint256[]",
          "name": "ids",
          "type": "uint256[]"
        },
        {
          "internalType": "uint256[]",
          "name": "amounts",
          "type": "uint256[]"
        }
      ],
      "name": "burnBatch",
      "outputs": [],
      "stateMutability": "nonpayable",
      "type": "function"
    },
    {
      "inputs": [
        {
          "internalType": "bytes32",
          "name": "role",
          "type": "bytes32"
        }
      ],
      "name": "getRoleAdmin",
      "outputs": [
        {
          "internalType": "bytes32",
          "name": "",
          "type": "bytes32"
        }
      ],
      "stateMutability": "view",
      "type": "function"
    },
    {
      "inputs": [
        {
          "internalType": "bytes32",
          "name": "role",
          "type": "bytes32"
        },
        {
          "internalType": "address",
          "name": "account",
          "type": "address"
        }
      ],
      "name": "grantRole",
      "outputs": [],
      "stateMutability": "nonpayable",
      "type": "function"
    },
    {
      "inputs": [
        {
          "internalType": "bytes32",
          "name": "role",
          "type": "bytes32"
        },
        {
          "internalType": "address",
          "name": "account",
          "type": "address"
        }
      ],
      "name": "hasRole",
      "outputs": [
        {
          "internalType": "bool",
          "name": "",
          "type": "bool"
        }
      ],
      "stateMutability": "view",
      "type": "function"
    },
    {
      "inputs": [
        {
          "internalType": "address",
          "name": "account",
          "type": "address"
        },
        {
          "internalType": "address",
          "name": "operator",
          "type": "address"
        }
      ],
      "name": "isApprovedForAll",
      "outputs": [
        {
          "internalType": "bool",
          "name": "",
          "type": "bool"
        }
      ],
      "stateMutability": "view",
      "type": "function"
    },
    {
      "inputs": [
        {
          "internalType": "address",
          "name": "user",
          "type": "address"
        }
      ],
      "name": "isMinter",
      "outputs": [
        {
          "internalType": "bool",
          "name": "",
          "type": "bool"
        }
      ],
      "stateMutability": "view",
      "type": "function"
    },
    {
      "inputs": [
        {
          "internalType": "address",
          "name": "to",
          "type": "address"
        },
        {
          "internalType": "uint256",
          "name": "id",
          "type": "uint256"
        },
        {
          "internalType": "uint256",
          "name": "amount",
          "type": "uint256"
        }
      ],
      "name": "mint",
      "outputs": [],
      "stateMutability": "nonpayable",
      "type": "function"
    },
    {
      "inputs": [
        {
          "internalType": "bytes32",
          "name": "role",
          "type": "bytes32"
        },
        {
          "internalType": "address",
          "name": "account",
          "type": "address"
        }
      ],
      "name": "renounceRole",
      "outputs": [],
      "stateMutability": "nonpayable",
      "type": "function"
    },
    {
      "inputs": [
        {
          "internalType": "address",
          "name": "to",
          "type": "address"
        }
      ],
      "name": "revokeMinter",
      "outputs": [],
      "stateMutability": "nonpayable",
      "type": "function"
    },
    {
      "inputs": [
        {
          "internalType": "bytes32",
          "name": "role",
          "type": "bytes32"
        },
        {
          "internalType": "address",
          "name": "account",
          "type": "address"
        }
      ],
      "name": "revokeRole",
      "outputs": [],
      "stateMutability": "nonpayable",
      "type": "function"
    },
    {
      "inputs": [
        {
          "internalType": "address",
          "name": "from",
          "type": "address"
        },
        {
          "internalType": "address",
          "name": "to",
          "type": "address"
        },
        {
          "internalType": "uint256[]",
          "name": "ids",
          "type": "uint256[]"
        },
        {
          "internalType": "uint256[]",
          "name": "amounts",
          "type": "uint256[]"
        },
        {
          "internalType": "bytes",
          "name": "data",
          "type": "bytes"
        }
      ],
      "name": "safeBatchTransferFrom",
      "outputs": [],
      "stateMutability": "nonpayable",
      "type": "function"
    },
    {
      "inputs": [
        {
          "internalType": "address",
          "name": "from",
          "type": "address"
        },
        {
          "internalType": "address",
          "name": "to",
          "type": "address"
        },
        {
          "internalType": "uint256",
          "name": "id",
          "type": "uint256"
        },
        {
          "internalType": "uint256",
          "name": "amount",
          "type": "uint256"
        },
        {
          "internalType": "bytes",
          "name": "data",
          "type": "bytes"
        }
      ],
      "name": "safeTransferFrom",
      "outputs": [],
      "stateMutability": "nonpayable",
      "type": "function"
    },
    {
      "inputs": [
        {
          "internalType": "address",
          "name": "operator",
          "type": "address"
        },
        {
          "internalType": "bool",
          "name": "approved",
          "type": "bool"
        }
      ],
      "name": "setApprovalForAll",
      "outputs": [],
      "stateMutability": "nonpayable",
      "type": "function"
    },
    {
      "inputs": [
        {
          "internalType": "bytes4",
          "name": "interfaceId",
          "type": "bytes4"
        }
      ],
      "name": "supportsInterface",
      "outputs": [
        {
          "internalType": "bool",
          "name": "",
          "type": "bool"
        }
      ],
      "stateMutability": "view",
      "type": "function"
    },
    {
      "inputs": [
        {
          "internalType": "uint256",
          "name": "",
          "type": "uint256"
        }
      ],
      "name": "uri",
      "outputs": [
        {
          "internalType": "string",
          "name": "",
          "type": "string"
        }
      ],
      "stateMutability": "view",
      "type": "function"
    }
  ],
  "bytecode": "0x60806040523480156200001157600080fd5b506040518060600160405280603a8152602001620049a6603a91396200003d81620000c060201b60201c565b50620000536000801b33620000dc60201b60201c565b620000887ff0887ba65ee2024ea881d91b74c2450ef19e1557f03bed3ea9f16b037cbe2dc96000801b620000f260201b60201c565b620000ba7ff0887ba65ee2024ea881d91b74c2450ef19e1557f03bed3ea9f16b037cbe2dc9336200015660201b60201c565b62000b69565b8060029080519060200190620000d892919062000674565b5050565b620000ee82826200018f60201b60201c565b5050565b600062000105836200028160201b60201c565b90508160036000858152602001908152602001600020600101819055508181847fbd79b86ffe0ab8e8776151514217cd7cacd52c909f66475c3af44e129f0b00ff60405160405180910390a4505050565b62000167826200028160201b60201c565b6200017881620002a160201b60201c565b6200018a83836200018f60201b60201c565b505050565b620001a18282620002c560201b60201c565b6200027d5760016003600084815260200190815260200160002060000160008373ffffffffffffffffffffffffffffffffffffffff1673ffffffffffffffffffffffffffffffffffffffff16815260200190815260200160002060006101000a81548160ff021916908315150217905550620002226200033060201b60201c565b73ffffffffffffffffffffffffffffffffffffffff168173ffffffffffffffffffffffffffffffffffffffff16837f2f8788117e7eff1d82e926ec794901d17c78024a50270940304540a733656f0d60405160405180910390a45b5050565b600060036000838152602001908152602001600020600101549050919050565b620002c281620002b66200033060201b60201c565b6200033860201b60201c565b50565b60006003600084815260200190815260200160002060000160008373ffffffffffffffffffffffffffffffffffffffff1673ffffffffffffffffffffffffffffffffffffffff16815260200190815260200160002060009054906101000a900460ff16905092915050565b600033905090565b6200034a8282620002c560201b60201c565b620003e0576200036581620003e460201b62000c361760201c565b620003808360001c60206200041960201b62000c631760201c565b6040516020016200039392919062000847565b6040516020818303038152906040526040517f08c379a0000000000000000000000000000000000000000000000000000000008152600401620003d79190620008ec565b60405180910390fd5b5050565b6060620004128273ffffffffffffffffffffffffffffffffffffffff16601460ff166200041960201b60201c565b9050919050565b6060600060028360026200042e919062000949565b6200043a9190620009aa565b67ffffffffffffffff81111562000456576200045562000a07565b5b6040519080825280601f01601f191660200182016040528015620004895781602001600182028036833780820191505090505b5090507f300000000000000000000000000000000000000000000000000000000000000081600081518110620004c457620004c362000a36565b5b60200101907effffffffffffffffffffffffffffffffffffffffffffffffffffffffffffff1916908160001a9053507f7800000000000000000000000000000000000000000000000000000000000000816001815181106200052b576200052a62000a36565b5b60200101907effffffffffffffffffffffffffffffffffffffffffffffffffffffffffffff1916908160001a905350600060018460026200056d919062000949565b620005799190620009aa565b90505b600181111562000623577f3031323334353637383961626364656600000000000000000000000000000000600f861660108110620005bf57620005be62000a36565b5b1a60f81b828281518110620005d957620005d862000a36565b5b60200101907effffffffffffffffffffffffffffffffffffffffffffffffffffffffffffff1916908160001a905350600485901c9450806200061b9062000a65565b90506200057c565b50600084146200066a576040517f08c379a0000000000000000000000000000000000000000000000000000000008152600401620006619062000ae3565b60405180910390fd5b8091505092915050565b828054620006829062000b34565b90600052602060002090601f016020900481019282620006a65760008555620006f2565b82601f10620006c157805160ff1916838001178555620006f2565b82800160010185558215620006f2579182015b82811115620006f1578251825591602001919060010190620006d4565b5b50905062000701919062000705565b5090565b5b808211156200072057600081600090555060010162000706565b5090565b600081905092915050565b7f416363657373436f6e74726f6c3a206163636f756e7420000000000000000000600082015250565b60006200076760178362000724565b915062000774826200072f565b601782019050919050565b600081519050919050565b60005b83811015620007aa5780820151818401526020810190506200078d565b83811115620007ba576000848401525b50505050565b6000620007cd826200077f565b620007d9818562000724565b9350620007eb8185602086016200078a565b80840191505092915050565b7f206973206d697373696e6720726f6c6520000000000000000000000000000000600082015250565b60006200082f60118362000724565b91506200083c82620007f7565b601182019050919050565b6000620008548262000758565b9150620008628285620007c0565b91506200086f8262000820565b91506200087d8284620007c0565b91508190509392505050565b600082825260208201905092915050565b6000601f19601f8301169050919050565b6000620008b8826200077f565b620008c4818562000889565b9350620008d68185602086016200078a565b620008e1816200089a565b840191505092915050565b60006020820190508181036000830152620009088184620008ab565b905092915050565b6000819050919050565b7f4e487b7100000000000000000000000000000000000000000000000000000000600052601160045260246000fd5b6000620009568262000910565b9150620009638362000910565b9250817fffffffffffffffffffffffffffffffffffffffffffffffffffffffffffffffff04831182151516156200099f576200099e6200091a565b5b828202905092915050565b6000620009b78262000910565b9150620009c48362000910565b9250827fffffffffffffffffffffffffffffffffffffffffffffffffffffffffffffffff03821115620009fc57620009fb6200091a565b5b828201905092915050565b7f4e487b7100000000000000000000000000000000000000000000000000000000600052604160045260246000fd5b7f4e487b7100000000000000000000000000000000000000000000000000000000600052603260045260246000fd5b600062000a728262000910565b91506000820362000a885762000a876200091a565b5b600182039050919050565b7f537472696e67733a20686578206c656e67746820696e73756666696369656e74600082015250565b600062000acb60208362000889565b915062000ad88262000a93565b602082019050919050565b6000602082019050818103600083015262000afe8162000abc565b9050919050565b7f4e487b7100000000000000000000000000000000000000000000000000000000600052602260045260246000fd5b6000600282049050600182168062000b4d57607f821691505b60208210810362000b635762000b6262000b05565b5b50919050565b613e2d8062000b796000396000f3fe608060405234801561001057600080fd5b50600436106101365760003560e01c80636b20c454116100b8578063cfbd48851161007c578063cfbd48851461036d578063d539139314610389578063d547741f146103a7578063e985e9c5146103c3578063f242432a146103f3578063f5298aca1461040f57610136565b80636b20c454146102b757806391d14854146102d3578063a217fddf14610303578063a22cb46514610321578063aa271e1a1461033d57610136565b80632eb2c2d6116100ff5780632eb2c2d6146102175780632f2ff15d1461023357806336568abe1461024f5780634e1273f41461026b5780636004e1401461029b57610136565b8062fdd58e1461013b57806301ffc9a71461016b5780630e89341c1461019b578063156e29f6146101cb578063248a9ca3146101e7575b600080fd5b610155600480360381019061015091906125c6565b61042b565b6040516101629190612615565b60405180910390f35b61018560048036038101906101809190612688565b6104f3565b60405161019291906126d0565b60405180910390f35b6101b560048036038101906101b091906126eb565b610505565b6040516101c291906127b1565b60405180910390f35b6101e560048036038101906101e091906127d3565b610599565b005b61020160048036038101906101fc919061285c565b610628565b60405161020e9190612898565b60405180910390f35b610231600480360381019061022c9190612ab0565b610648565b005b61024d60048036038101906102489190612b7f565b6106e9565b005b61026960048036038101906102649190612b7f565b61070a565b005b61028560048036038101906102809190612c82565b61078d565b6040516102929190612db8565b60405180910390f35b6102b560048036038101906102b09190612dda565b6108a6565b005b6102d160048036038101906102cc9190612e07565b610950565b005b6102ed60048036038101906102e89190612b7f565b61098b565b6040516102fa91906126d0565b60405180910390f35b61030b6109f6565b6040516103189190612898565b60405180910390f35b61033b60048036038101906103369190612ebe565b6109fd565b005b61035760048036038101906103529190612dda565b610a13565b60405161036491906126d0565b60405180910390f35b61038760048036038101906103829190612dda565b610a46565b005b610391610a81565b60405161039e9190612898565b60405180910390f35b6103c160048036038101906103bc9190612b7f565b610aa5565b005b6103dd60048036038101906103d89190612efe565b610ac6565b6040516103ea91906126d0565b60405180910390f35b61040d60048036038101906104089190612f3e565b610b5a565b005b610429600480360381019061042491906127d3565b610bfb565b005b60008073ffffffffffffffffffffffffffffffffffffffff168373ffffffffffffffffffffffffffffffffffffffff160361049b576040517f08c379a000000000000000000000000000000000000000000000000000000000815260040161049290613047565b60405180910390fd5b60008083815260200190815260200160002060008473ffffffffffffffffffffffffffffffffffffffff1673ffffffffffffffffffffffffffffffffffffffff16815260200190815260200160002054905092915050565b60006104fe82610e9f565b9050919050565b60606002805461051490613096565b80601f016020809104026020016040519081016040528092919081815260200182805461054090613096565b801561058d5780601f106105625761010080835404028352916020019161058d565b820191906000526020600020905b81548152906001019060200180831161057057829003601f168201915b50505050509050919050565b7ff0887ba65ee2024ea881d91b74c2450ef19e1557f03bed3ea9f16b037cbe2dc96105c381610f19565b6006831115610607576040517f08c379a00000000000000000000000000000000000000000000000000000000081526004016105fe90613113565b60405180910390fd5b61062284848460405180602001604052806000815250610f2d565b50505050565b600060036000838152602001908152602001600020600101549050919050565b6106506110dd565b73ffffffffffffffffffffffffffffffffffffffff168573ffffffffffffffffffffffffffffffffffffffff1614806106965750610695856106906110dd565b610ac6565b5b6106d5576040517f08c379a00000000000000000000000000000000000000000000000000000000081526004016106cc906131a5565b60405180910390fd5b6106e285858585856110e5565b5050505050565b6106f282610628565b6106fb81610f19565b6107058383611406565b505050565b6107126110dd565b73ffffffffffffffffffffffffffffffffffffffff168173ffffffffffffffffffffffffffffffffffffffff161461077f576040517f08c379a000000000000000000000000000000000000000000000000000000000815260040161077690613237565b60405180910390fd5b61078982826114e7565b5050565b606081518351146107d3576040517f08c379a00000000000000000000000000000000000000000000000000000000081526004016107ca906132c9565b60405180910390fd5b6000835167ffffffffffffffff8111156107f0576107ef6128b8565b5b60405190808252806020026020018201604052801561081e5781602001602082028036833780820191505090505b50905060005b845181101561089b5761086b858281518110610843576108426132e9565b5b602002602001015185838151811061085e5761085d6132e9565b5b602002602001015161042b565b82828151811061087e5761087d6132e9565b5b6020026020010181815250508061089490613347565b9050610824565b508091505092915050565b6000801b6108b381610f19565b600073ffffffffffffffffffffffffffffffffffffffff168273ffffffffffffffffffffffffffffffffffffffff1603610922576040517f08c379a0000000000000000000000000000000000000000000000000000000008152600401610919906133db565b60405180910390fd5b61094c7ff0887ba65ee2024ea881d91b74c2450ef19e1557f03bed3ea9f16b037cbe2dc9836115c9565b5050565b7ff0887ba65ee2024ea881d91b74c2450ef19e1557f03bed3ea9f16b037cbe2dc961097a81610f19565b6109858484846115d7565b50505050565b60006003600084815260200190815260200160002060000160008373ffffffffffffffffffffffffffffffffffffffff1673ffffffffffffffffffffffffffffffffffffffff16815260200190815260200160002060009054906101000a900460ff16905092915050565b6000801b81565b610a0f610a086110dd565b83836118a5565b5050565b6000610a3f7ff0887ba65ee2024ea881d91b74c2450ef19e1557f03bed3ea9f16b037cbe2dc98361098b565b9050919050565b6000801b610a5381610f19565b610a7d7ff0887ba65ee2024ea881d91b74c2450ef19e1557f03bed3ea9f16b037cbe2dc9836114e7565b5050565b7ff0887ba65ee2024ea881d91b74c2450ef19e1557f03bed3ea9f16b037cbe2dc981565b610aae82610628565b610ab781610f19565b610ac183836114e7565b505050565b6000600160008473ffffffffffffffffffffffffffffffffffffffff1673ffffffffffffffffffffffffffffffffffffffff16815260200190815260200160002060008373ffffffffffffffffffffffffffffffffffffffff1673ffffffffffffffffffffffffffffffffffffffff16815260200190815260200160002060009054906101000a900460ff16905092915050565b610b626110dd565b73ffffffffffffffffffffffffffffffffffffffff168573ffffffffffffffffffffffffffffffffffffffff161480610ba85750610ba785610ba26110dd565b610ac6565b5b610be7576040517f08c379a0000000000000000000000000000000000000000000000000000000008152600401610bde906131a5565b60405180910390fd5b610bf48585858585611a11565b5050505050565b7ff0887ba65ee2024ea881d91b74c2450ef19e1557f03bed3ea9f16b037cbe2dc9610c2581610f19565b610c30848484611cac565b50505050565b6060610c5c8273ffffffffffffffffffffffffffffffffffffffff16601460ff16610c63565b9050919050565b606060006002836002610c7691906133fb565b610c809190613455565b67ffffffffffffffff811115610c9957610c986128b8565b5b6040519080825280601f01601f191660200182016040528015610ccb5781602001600182028036833780820191505090505b5090507f300000000000000000000000000000000000000000000000000000000000000081600081518110610d0357610d026132e9565b5b60200101907effffffffffffffffffffffffffffffffffffffffffffffffffffffffffffff1916908160001a9053507f780000000000000000000000000000000000000000000000000000000000000081600181518110610d6757610d666132e9565b5b60200101907effffffffffffffffffffffffffffffffffffffffffffffffffffffffffffff1916908160001a90535060006001846002610da791906133fb565b610db19190613455565b90505b6001811115610e51577f3031323334353637383961626364656600000000000000000000000000000000600f861660108110610df357610df26132e9565b5b1a60f81b828281518110610e0a57610e096132e9565b5b60200101907effffffffffffffffffffffffffffffffffffffffffffffffffffffffffffff1916908160001a905350600485901c945080610e4a906134ab565b9050610db4565b5060008414610e95576040517f08c379a0000000000000000000000000000000000000000000000000000000008152600401610e8c90613520565b60405180910390fd5b8091505092915050565b60007f7965db0b000000000000000000000000000000000000000000000000000000007bffffffffffffffffffffffffffffffffffffffffffffffffffffffff1916827bffffffffffffffffffffffffffffffffffffffffffffffffffffffff19161480610f125750610f1182611ef2565b5b9050919050565b610f2a81610f256110dd565b611fd4565b50565b600073ffffffffffffffffffffffffffffffffffffffff168473ffffffffffffffffffffffffffffffffffffffff1603610f9c576040517f08c379a0000000000000000000000000000000000000000000000000000000008152600401610f93906135b2565b60405180910390fd5b6000610fa66110dd565b90506000610fb385612059565b90506000610fc085612059565b9050610fd1836000898585896120d3565b8460008088815260200190815260200160002060008973ffffffffffffffffffffffffffffffffffffffff1673ffffffffffffffffffffffffffffffffffffffff16815260200190815260200160002060008282546110309190613455565b925050819055508673ffffffffffffffffffffffffffffffffffffffff16600073ffffffffffffffffffffffffffffffffffffffff168473ffffffffffffffffffffffffffffffffffffffff167fc3d58168c5ae7397731d063d5bbf3d657854427343f4c083240f7aacaa2d0f6289896040516110ae9291906135d2565b60405180910390a46110c5836000898585896120db565b6110d4836000898989896120e3565b50505050505050565b600033905090565b8151835114611129576040517f08c379a00000000000000000000000000000000000000000000000000000000081526004016111209061366d565b60405180910390fd5b600073ffffffffffffffffffffffffffffffffffffffff168473ffffffffffffffffffffffffffffffffffffffff1603611198576040517f08c379a000000000000000000000000000000000000000000000000000000000815260040161118f906136ff565b60405180910390fd5b60006111a26110dd565b90506111b28187878787876120d3565b60005b84518110156113635760008582815181106111d3576111d26132e9565b5b6020026020010151905060008583815181106111f2576111f16132e9565b5b60200260200101519050600080600084815260200190815260200160002060008b73ffffffffffffffffffffffffffffffffffffffff1673ffffffffffffffffffffffffffffffffffffffff16815260200190815260200160002054905081811015611293576040517f08c379a000000000000000000000000000000000000000000000000000000000815260040161128a90613791565b60405180910390fd5b81810360008085815260200190815260200160002060008c73ffffffffffffffffffffffffffffffffffffffff1673ffffffffffffffffffffffffffffffffffffffff168152602001908152602001600020819055508160008085815260200190815260200160002060008b73ffffffffffffffffffffffffffffffffffffffff1673ffffffffffffffffffffffffffffffffffffffff16815260200190815260200160002060008282546113489190613455565b925050819055505050508061135c90613347565b90506111b5565b508473ffffffffffffffffffffffffffffffffffffffff168673ffffffffffffffffffffffffffffffffffffffff168273ffffffffffffffffffffffffffffffffffffffff167f4a39dc06d4c0dbc64b70af90fd698a233a518aa5d07e595d983b8c0526c8f7fb87876040516113da9291906137b1565b60405180910390a46113f08187878787876120db565b6113fe8187878787876122ba565b505050505050565b611410828261098b565b6114e35760016003600084815260200190815260200160002060000160008373ffffffffffffffffffffffffffffffffffffffff1673ffffffffffffffffffffffffffffffffffffffff16815260200190815260200160002060006101000a81548160ff0219169083151502179055506114886110dd565b73ffffffffffffffffffffffffffffffffffffffff168173ffffffffffffffffffffffffffffffffffffffff16837f2f8788117e7eff1d82e926ec794901d17c78024a50270940304540a733656f0d60405160405180910390a45b5050565b6114f1828261098b565b156115c55760006003600084815260200190815260200160002060000160008373ffffffffffffffffffffffffffffffffffffffff1673ffffffffffffffffffffffffffffffffffffffff16815260200190815260200160002060006101000a81548160ff02191690831515021790555061156a6110dd565b73ffffffffffffffffffffffffffffffffffffffff168173ffffffffffffffffffffffffffffffffffffffff16837ff6391f5c32d9c69d2a47ea670b442974b53935d1edc7fd64eb21e047a839171b60405160405180910390a45b5050565b6115d38282611406565b5050565b600073ffffffffffffffffffffffffffffffffffffffff168373ffffffffffffffffffffffffffffffffffffffff1603611646576040517f08c379a000000000000000000000000000000000000000000000000000000000815260040161163d9061385a565b60405180910390fd5b805182511461168a576040517f08c379a00000000000000000000000000000000000000000000000000000000081526004016116819061366d565b60405180910390fd5b60006116946110dd565b90506116b4818560008686604051806020016040528060008152506120d3565b60005b83518110156118015760008482815181106116d5576116d46132e9565b5b6020026020010151905060008483815181106116f4576116f36132e9565b5b60200260200101519050600080600084815260200190815260200160002060008973ffffffffffffffffffffffffffffffffffffffff1673ffffffffffffffffffffffffffffffffffffffff16815260200190815260200160002054905081811015611795576040517f08c379a000000000000000000000000000000000000000000000000000000000815260040161178c906138ec565b60405180910390fd5b81810360008085815260200190815260200160002060008a73ffffffffffffffffffffffffffffffffffffffff1673ffffffffffffffffffffffffffffffffffffffff1681526020019081526020016000208190555050505080806117f990613347565b9150506116b7565b50600073ffffffffffffffffffffffffffffffffffffffff168473ffffffffffffffffffffffffffffffffffffffff168273ffffffffffffffffffffffffffffffffffffffff167f4a39dc06d4c0dbc64b70af90fd698a233a518aa5d07e595d983b8c0526c8f7fb86866040516118799291906137b1565b60405180910390a461189f818560008686604051806020016040528060008152506120db565b50505050565b8173ffffffffffffffffffffffffffffffffffffffff168373ffffffffffffffffffffffffffffffffffffffff1603611913576040517f08c379a000000000000000000000000000000000000000000000000000000000815260040161190a9061397e565b60405180910390fd5b80600160008573ffffffffffffffffffffffffffffffffffffffff1673ffffffffffffffffffffffffffffffffffffffff16815260200190815260200160002060008473ffffffffffffffffffffffffffffffffffffffff1673ffffffffffffffffffffffffffffffffffffffff16815260200190815260200160002060006101000a81548160ff0219169083151502179055508173ffffffffffffffffffffffffffffffffffffffff168373ffffffffffffffffffffffffffffffffffffffff167f17307eab39ab6107e8899845ad3d59bd9653f200f220920489ca2b5937696c3183604051611a0491906126d0565b60405180910390a3505050565b600073ffffffffffffffffffffffffffffffffffffffff168473ffffffffffffffffffffffffffffffffffffffff1603611a80576040517f08c379a0000000000000000000000000000000000000000000000000000000008152600401611a77906136ff565b60405180910390fd5b6000611a8a6110dd565b90506000611a9785612059565b90506000611aa485612059565b9050611ab48389898585896120d3565b600080600088815260200190815260200160002060008a73ffffffffffffffffffffffffffffffffffffffff1673ffffffffffffffffffffffffffffffffffffffff16815260200190815260200160002054905085811015611b4b576040517f08c379a0000000000000000000000000000000000000000000000000000000008152600401611b4290613791565b60405180910390fd5b85810360008089815260200190815260200160002060008b73ffffffffffffffffffffffffffffffffffffffff1673ffffffffffffffffffffffffffffffffffffffff168152602001908152602001600020819055508560008089815260200190815260200160002060008a73ffffffffffffffffffffffffffffffffffffffff1673ffffffffffffffffffffffffffffffffffffffff1681526020019081526020016000206000828254611c009190613455565b925050819055508773ffffffffffffffffffffffffffffffffffffffff168973ffffffffffffffffffffffffffffffffffffffff168573ffffffffffffffffffffffffffffffffffffffff167fc3d58168c5ae7397731d063d5bbf3d657854427343f4c083240f7aacaa2d0f628a8a604051611c7d9291906135d2565b60405180910390a4611c93848a8a86868a6120db565b611ca1848a8a8a8a8a6120e3565b505050505050505050565b600073ffffffffffffffffffffffffffffffffffffffff168373ffffffffffffffffffffffffffffffffffffffff1603611d1b576040517f08c379a0000000000000000000000000000000000000000000000000000000008152600401611d129061385a565b60405180910390fd5b6000611d256110dd565b90506000611d3284612059565b90506000611d3f84612059565b9050611d5f838760008585604051806020016040528060008152506120d3565b600080600087815260200190815260200160002060008873ffffffffffffffffffffffffffffffffffffffff1673ffffffffffffffffffffffffffffffffffffffff16815260200190815260200160002054905084811015611df6576040517f08c379a0000000000000000000000000000000000000000000000000000000008152600401611ded906138ec565b60405180910390fd5b84810360008088815260200190815260200160002060008973ffffffffffffffffffffffffffffffffffffffff1673ffffffffffffffffffffffffffffffffffffffff16815260200190815260200160002081905550600073ffffffffffffffffffffffffffffffffffffffff168773ffffffffffffffffffffffffffffffffffffffff168573ffffffffffffffffffffffffffffffffffffffff167fc3d58168c5ae7397731d063d5bbf3d657854427343f4c083240f7aacaa2d0f628989604051611ec39291906135d2565b60405180910390a4611ee9848860008686604051806020016040528060008152506120db565b50505050505050565b60007fd9b67a26000000000000000000000000000000000000000000000000000000007bffffffffffffffffffffffffffffffffffffffffffffffffffffffff1916827bffffffffffffffffffffffffffffffffffffffffffffffffffffffff19161480611fbd57507f0e89341c000000000000000000000000000000000000000000000000000000007bffffffffffffffffffffffffffffffffffffffffffffffffffffffff1916827bffffffffffffffffffffffffffffffffffffffffffffffffffffffff1916145b80611fcd5750611fcc82612491565b5b9050919050565b611fde828261098b565b61205557611feb81610c36565b611ff98360001c6020610c63565b60405160200161200a929190613a72565b6040516020818303038152906040526040517f08c379a000000000000000000000000000000000000000000000000000000000815260040161204c91906127b1565b60405180910390fd5b5050565b60606000600167ffffffffffffffff811115612078576120776128b8565b5b6040519080825280602002602001820160405280156120a65781602001602082028036833780820191505090505b50905082816000815181106120be576120bd6132e9565b5b60200260200101818152505080915050919050565b505050505050565b505050505050565b6121028473ffffffffffffffffffffffffffffffffffffffff166124fb565b156122b2578373ffffffffffffffffffffffffffffffffffffffff1663f23a6e6187878686866040518663ffffffff1660e01b8152600401612148959493929190613b10565b6020604051808303816000875af192505050801561218457506040513d601f19601f820116820180604052508101906121819190613b7f565b60015b61222957612190613bb9565b806308c379a0036121ec57506121a4613bdb565b806121af57506121ee565b806040517f08c379a00000000000000000000000000000000000000000000000000000000081526004016121e391906127b1565b60405180910390fd5b505b6040517f08c379a000000000000000000000000000000000000000000000000000000000815260040161222090613cdd565b60405180910390fd5b63f23a6e6160e01b7bffffffffffffffffffffffffffffffffffffffffffffffffffffffff1916817bffffffffffffffffffffffffffffffffffffffffffffffffffffffff1916146122b0576040517f08c379a00000000000000000000000000000000000000000000000000000000081526004016122a790613d6f565b60405180910390fd5b505b505050505050565b6122d98473ffffffffffffffffffffffffffffffffffffffff166124fb565b15612489578373ffffffffffffffffffffffffffffffffffffffff1663bc197c8187878686866040518663ffffffff1660e01b815260040161231f959493929190613d8f565b6020604051808303816000875af192505050801561235b57506040513d601f19601f820116820180604052508101906123589190613b7f565b60015b61240057612367613bb9565b806308c379a0036123c3575061237b613bdb565b8061238657506123c5565b806040517f08c379a00000000000000000000000000000000000000000000000000000000081526004016123ba91906127b1565b60405180910390fd5b505b6040517f08c379a00000000000000000000000000000000000000000000000000000000081526004016123f790613cdd565b60405180910390fd5b63bc197c8160e01b7bffffffffffffffffffffffffffffffffffffffffffffffffffffffff1916817bffffffffffffffffffffffffffffffffffffffffffffffffffffffff191614612487576040517f08c379a000000000000000000000000000000000000000000000000000000000815260040161247e90613d6f565b60405180910390fd5b505b505050505050565b60007f01ffc9a7000000000000000000000000000000000000000000000000000000007bffffffffffffffffffffffffffffffffffffffffffffffffffffffff1916827bffffffffffffffffffffffffffffffffffffffffffffffffffffffff1916149050919050565b6000808273ffffffffffffffffffffffffffffffffffffffff163b119050919050565b6000604051905090565b600080fd5b600080fd5b600073ffffffffffffffffffffffffffffffffffffffff82169050919050565b600061255d82612532565b9050919050565b61256d81612552565b811461257857600080fd5b50565b60008135905061258a81612564565b92915050565b6000819050919050565b6125a381612590565b81146125ae57600080fd5b50565b6000813590506125c08161259a565b92915050565b600080604083850312156125dd576125dc612528565b5b60006125eb8582860161257b565b92505060206125fc858286016125b1565b9150509250929050565b61260f81612590565b82525050565b600060208201905061262a6000830184612606565b92915050565b60007fffffffff0000000000000000000000000000000000000000000000000000000082169050919050565b61266581612630565b811461267057600080fd5b50565b6000813590506126828161265c565b92915050565b60006020828403121561269e5761269d612528565b5b60006126ac84828501612673565b91505092915050565b60008115159050919050565b6126ca816126b5565b82525050565b60006020820190506126e560008301846126c1565b92915050565b60006020828403121561270157612700612528565b5b600061270f848285016125b1565b91505092915050565b600081519050919050565b600082825260208201905092915050565b60005b83811015612752578082015181840152602081019050612737565b83811115612761576000848401525b50505050565b6000601f19601f8301169050919050565b600061278382612718565b61278d8185612723565b935061279d818560208601612734565b6127a681612767565b840191505092915050565b600060208201905081810360008301526127cb8184612778565b905092915050565b6000806000606084860312156127ec576127eb612528565b5b60006127fa8682870161257b565b935050602061280b868287016125b1565b925050604061281c868287016125b1565b9150509250925092565b6000819050919050565b61283981612826565b811461284457600080fd5b50565b60008135905061285681612830565b92915050565b60006020828403121561287257612871612528565b5b600061288084828501612847565b91505092915050565b61289281612826565b82525050565b60006020820190506128ad6000830184612889565b92915050565b600080fd5b7f4e487b7100000000000000000000000000000000000000000000000000000000600052604160045260246000fd5b6128f082612767565b810181811067ffffffffffffffff8211171561290f5761290e6128b8565b5b80604052505050565b600061292261251e565b905061292e82826128e7565b919050565b600067ffffffffffffffff82111561294e5761294d6128b8565b5b602082029050602081019050919050565b600080fd5b600061297761297284612933565b612918565b9050808382526020820190506020840283018581111561299a5761299961295f565b5b835b818110156129c357806129af88826125b1565b84526020840193505060208101905061299c565b5050509392505050565b600082601f8301126129e2576129e16128b3565b5b81356129f2848260208601612964565b91505092915050565b600080fd5b600067ffffffffffffffff821115612a1b57612a1a6128b8565b5b612a2482612767565b9050602081019050919050565b82818337600083830152505050565b6000612a53612a4e84612a00565b612918565b905082815260208101848484011115612a6f57612a6e6129fb565b5b612a7a848285612a31565b509392505050565b600082601f830112612a9757612a966128b3565b5b8135612aa7848260208601612a40565b91505092915050565b600080600080600060a08688031215612acc57612acb612528565b5b6000612ada8882890161257b565b9550506020612aeb8882890161257b565b945050604086013567ffffffffffffffff811115612b0c57612b0b61252d565b5b612b18888289016129cd565b935050606086013567ffffffffffffffff811115612b3957612b3861252d565b5b612b45888289016129cd565b925050608086013567ffffffffffffffff811115612b6657612b6561252d565b5b612b7288828901612a82565b9150509295509295909350565b60008060408385031215612b9657612b95612528565b5b6000612ba485828601612847565b9250506020612bb58582860161257b565b9150509250929050565b600067ffffffffffffffff821115612bda57612bd96128b8565b5b602082029050602081019050919050565b6000612bfe612bf984612bbf565b612918565b90508083825260208201905060208402830185811115612c2157612c2061295f565b5b835b81811015612c4a5780612c36888261257b565b845260208401935050602081019050612c23565b5050509392505050565b600082601f830112612c6957612c686128b3565b5b8135612c79848260208601612beb565b91505092915050565b60008060408385031215612c9957612c98612528565b5b600083013567ffffffffffffffff811115612cb757612cb661252d565b5b612cc385828601612c54565b925050602083013567ffffffffffffffff811115612ce457612ce361252d565b5b612cf0858286016129cd565b9150509250929050565b600081519050919050565b600082825260208201905092915050565b6000819050602082019050919050565b612d2f81612590565b82525050565b6000612d418383612d26565b60208301905092915050565b6000602082019050919050565b6000612d6582612cfa565b612d6f8185612d05565b9350612d7a83612d16565b8060005b83811015612dab578151612d928882612d35565b9750612d9d83612d4d565b925050600181019050612d7e565b5085935050505092915050565b60006020820190508181036000830152612dd28184612d5a565b905092915050565b600060208284031215612df057612def612528565b5b6000612dfe8482850161257b565b91505092915050565b600080600060608486031215612e2057612e1f612528565b5b6000612e2e8682870161257b565b935050602084013567ffffffffffffffff811115612e4f57612e4e61252d565b5b612e5b868287016129cd565b925050604084013567ffffffffffffffff811115612e7c57612e7b61252d565b5b612e88868287016129cd565b9150509250925092565b612e9b816126b5565b8114612ea657600080fd5b50565b600081359050612eb881612e92565b92915050565b60008060408385031215612ed557612ed4612528565b5b6000612ee38582860161257b565b9250506020612ef485828601612ea9565b9150509250929050565b60008060408385031215612f1557612f14612528565b5b6000612f238582860161257b565b9250506020612f348582860161257b565b9150509250929050565b600080600080600060a08688031215612f5a57612f59612528565b5b6000612f688882890161257b565b9550506020612f798882890161257b565b9450506040612f8a888289016125b1565b9350506060612f9b888289016125b1565b925050608086013567ffffffffffffffff811115612fbc57612fbb61252d565b5b612fc888828901612a82565b9150509295509295909350565b7f455243313135353a2061646472657373207a65726f206973206e6f742061207660008201527f616c6964206f776e657200000000000000000000000000000000000000000000602082015250565b6000613031602a83612723565b915061303c82612fd5565b604082019050919050565b6000602082019050818103600083015261306081613024565b9050919050565b7f4e487b7100000000000000000000000000000000000000000000000000000000600052602260045260246000fd5b600060028204905060018216806130ae57607f821691505b6020821081036130c1576130c0613067565b5b50919050565b7f496e76616c696420546f6b656e49640000000000000000000000000000000000600082015250565b60006130fd600f83612723565b9150613108826130c7565b602082019050919050565b6000602082019050818103600083015261312c816130f0565b9050919050565b7f455243313135353a2063616c6c6572206973206e6f7420746f6b656e206f776e60008201527f6572206f7220617070726f766564000000000000000000000000000000000000602082015250565b600061318f602e83612723565b915061319a82613133565b604082019050919050565b600060208201905081810360008301526131be81613182565b9050919050565b7f416363657373436f6e74726f6c3a2063616e206f6e6c792072656e6f756e636560008201527f20726f6c657320666f722073656c660000000000000000000000000000000000602082015250565b6000613221602f83612723565b915061322c826131c5565b604082019050919050565b6000602082019050818103600083015261325081613214565b9050919050565b7f455243313135353a206163636f756e747320616e6420696473206c656e67746860008201527f206d69736d617463680000000000000000000000000000000000000000000000602082015250565b60006132b3602983612723565b91506132be82613257565b604082019050919050565b600060208201905081810360008301526132e2816132a6565b9050919050565b7f4e487b7100000000000000000000000000000000000000000000000000000000600052603260045260246000fd5b7f4e487b7100000000000000000000000000000000000000000000000000000000600052601160045260246000fd5b600061335282612590565b91507fffffffffffffffffffffffffffffffffffffffffffffffffffffffffffffffff820361338457613383613318565b5b600182019050919050565b7f6e756c6c20616464726573730000000000000000000000000000000000000000600082015250565b60006133c5600c83612723565b91506133d08261338f565b602082019050919050565b600060208201905081810360008301526133f4816133b8565b9050919050565b600061340682612590565b915061341183612590565b9250817fffffffffffffffffffffffffffffffffffffffffffffffffffffffffffffffff048311821515161561344a57613449613318565b5b828202905092915050565b600061346082612590565b915061346b83612590565b9250827fffffffffffffffffffffffffffffffffffffffffffffffffffffffffffffffff038211156134a05761349f613318565b5b828201905092915050565b60006134b682612590565b9150600082036134c9576134c8613318565b5b600182039050919050565b7f537472696e67733a20686578206c656e67746820696e73756666696369656e74600082015250565b600061350a602083612723565b9150613515826134d4565b602082019050919050565b60006020820190508181036000830152613539816134fd565b9050919050565b7f455243313135353a206d696e7420746f20746865207a65726f2061646472657360008201527f7300000000000000000000000000000000000000000000000000000000000000602082015250565b600061359c602183612723565b91506135a782613540565b604082019050919050565b600060208201905081810360008301526135cb8161358f565b9050919050565b60006040820190506135e76000830185612606565b6135f46020830184612606565b9392505050565b7f455243313135353a2069647320616e6420616d6f756e7473206c656e6774682060008201527f6d69736d61746368000000000000000000000000000000000000000000000000602082015250565b6000613657602883612723565b9150613662826135fb565b604082019050919050565b600060208201905081810360008301526136868161364a565b9050919050565b7f455243313135353a207472616e7366657220746f20746865207a65726f20616460008201527f6472657373000000000000000000000000000000000000000000000000000000602082015250565b60006136e9602583612723565b91506136f48261368d565b604082019050919050565b60006020820190508181036000830152613718816136dc565b9050919050565b7f455243313135353a20696e73756666696369656e742062616c616e636520666f60008201527f72207472616e7366657200000000000000000000000000000000000000000000602082015250565b600061377b602a83612723565b91506137868261371f565b604082019050919050565b600060208201905081810360008301526137aa8161376e565b9050919050565b600060408201905081810360008301526137cb8185612d5a565b905081810360208301526137df8184612d5a565b90509392505050565b7f455243313135353a206275726e2066726f6d20746865207a65726f206164647260008201527f6573730000000000000000000000000000000000000000000000000000000000602082015250565b6000613844602383612723565b915061384f826137e8565b604082019050919050565b6000602082019050818103600083015261387381613837565b9050919050565b7f455243313135353a206275726e20616d6f756e7420657863656564732062616c60008201527f616e636500000000000000000000000000000000000000000000000000000000602082015250565b60006138d6602483612723565b91506138e18261387a565b604082019050919050565b60006020820190508181036000830152613905816138c9565b9050919050565b7f455243313135353a2073657474696e6720617070726f76616c2073746174757360008201527f20666f722073656c660000000000000000000000000000000000000000000000602082015250565b6000613968602983612723565b91506139738261390c565b604082019050919050565b600060208201905081810360008301526139978161395b565b9050919050565b600081905092915050565b7f416363657373436f6e74726f6c3a206163636f756e7420000000000000000000600082015250565b60006139df60178361399e565b91506139ea826139a9565b601782019050919050565b6000613a0082612718565b613a0a818561399e565b9350613a1a818560208601612734565b80840191505092915050565b7f206973206d697373696e6720726f6c6520000000000000000000000000000000600082015250565b6000613a5c60118361399e565b9150613a6782613a26565b601182019050919050565b6000613a7d826139d2565b9150613a8982856139f5565b9150613a9482613a4f565b9150613aa082846139f5565b91508190509392505050565b613ab581612552565b82525050565b600081519050919050565b600082825260208201905092915050565b6000613ae282613abb565b613aec8185613ac6565b9350613afc818560208601612734565b613b0581612767565b840191505092915050565b600060a082019050613b256000830188613aac565b613b326020830187613aac565b613b3f6040830186612606565b613b4c6060830185612606565b8181036080830152613b5e8184613ad7565b90509695505050505050565b600081519050613b798161265c565b92915050565b600060208284031215613b9557613b94612528565b5b6000613ba384828501613b6a565b91505092915050565b60008160e01c9050919050565b600060033d1115613bd85760046000803e613bd5600051613bac565b90505b90565b600060443d10613c6857613bed61251e565b60043d036004823e80513d602482011167ffffffffffffffff82111715613c15575050613c68565b808201805167ffffffffffffffff811115613c335750505050613c68565b80602083010160043d038501811115613c50575050505050613c68565b613c5f826020018501866128e7565b82955050505050505b90565b7f455243313135353a207472616e7366657220746f206e6f6e2d4552433131353560008201527f526563656976657220696d706c656d656e746572000000000000000000000000602082015250565b6000613cc7603483612723565b9150613cd282613c6b565b604082019050919050565b60006020820190508181036000830152613cf681613cba565b9050919050565b7f455243313135353a204552433131353552656365697665722072656a6563746560008201527f6420746f6b656e73000000000000000000000000000000000000000000000000602082015250565b6000613d59602883612723565b9150613d6482613cfd565b604082019050919050565b60006020820190508181036000830152613d8881613d4c565b9050919050565b600060a082019050613da46000830188613aac565b613db16020830187613aac565b8181036040830152613dc38186612d5a565b90508181036060830152613dd78185612d5a565b90508181036080830152613deb8184613ad7565b9050969550505050505056fea2646970667358221220c688af6746c642984b2ab159826505c90c524631e8c5d492a4594f1c5c09160864736f6c634300080d0033697066733a2f2f516d63553443386d6443613376546935534b67556e537a4b42527a46697450797871744a6a716a3372504844795a2f7b69647d",
  "linkReferences": {},
  "deployedLinkReferences": {}
}